{
  "abi": [
    {
      "inputs": [
        {
          "internalType": "uint256",
          "name": "_queueTimeout",
          "type": "uint256"
        },
        {
          "internalType": "uint256",
          "name": "_providerStakeAmount",
          "type": "uint256"
        }
      ],
      "stateMutability": "nonpayable",
      "type": "constructor"
    },
    {
      "anonymous": false,
      "inputs": [
        {
          "indexed": false,
          "internalType": "address",
          "name": "provider",
          "type": "address"
        },
        {
          "indexed": false,
          "internalType": "address",
          "name": "slasher",
          "type": "address"
        }
      ],
      "name": "providerSlashed",
      "type": "event"
    },
    {
      "anonymous": false,
      "inputs": [
        {
          "indexed": false,
          "internalType": "address",
          "name": "provider",
          "type": "address"
        }
      ],
      "name": "providerStaked",
      "type": "event"
    },
    {
      "anonymous": false,
      "inputs": [
        {
          "indexed": false,
          "internalType": "address",
          "name": "provider",
          "type": "address"
        }
      ],
      "name": "providerUnstaked",
      "type": "event"
    },
    {
      "anonymous": false,
      "inputs": [
        {
          "indexed": false,
          "internalType": "uint256",
          "name": "chainID",
          "type": "uint256"
        },
        {
          "indexed": false,
          "internalType": "address",
          "name": "provider",
          "type": "address"
        }
      ],
      "name": "rollupActivated",
      "type": "event"
    },
    {
      "anonymous": false,
      "inputs": [
        {
          "indexed": false,
          "internalType": "uint256",
          "name": "chainID",
          "type": "uint256"
        },
        {
          "indexed": false,
          "internalType": "address",
          "name": "provider",
          "type": "address"
        },
        {
          "indexed": false,
          "internalType": "uint256",
          "name": "requestedTimestamp",
          "type": "uint256"
        },
        {
          "indexed": false,
          "internalType": "uint256",
          "name": "timeoutTimestamp",
          "type": "uint256"
        }
      ],
      "name": "rollupQueued",
      "type": "event"
    },
    {
      "anonymous": false,
      "inputs": [
        {
          "indexed": false,
          "internalType": "uint256",
          "name": "chainID",
          "type": "uint256"
        },
        {
          "indexed": false,
          "internalType": "address",
          "name": "requester",
          "type": "address"
        },
        {
          "indexed": false,
          "internalType": "uint256",
          "name": "timestamp",
          "type": "uint256"
        }
      ],
      "name": "rollupRequested",
      "type": "event"
    },
    {
      "inputs": [
        {
          "internalType": "uint256",
          "name": "",
          "type": "uint256"
        }
      ],
      "name": "activatedRollupsL1Addresses",
      "outputs": [
        {
          "internalType": "bytes",
          "name": "",
          "type": "bytes"
        }
      ],
      "stateMutability": "view",
      "type": "function"
    },
    {
      "inputs": [
        {
          "internalType": "uint256",
          "name": "chainID_",
          "type": "uint256"
        },
        {
          "internalType": "bytes",
          "name": "l1Addresses_",
          "type": "bytes"
        }
      ],
      "name": "deployRollup",
      "outputs": [],
      "stateMutability": "nonpayable",
      "type": "function"
    },
    {
      "inputs": [
        {
          "internalType": "uint256",
          "name": "chainID_",
          "type": "uint256"
        }
      ],
      "name": "getRollupStatus",
      "outputs": [
        {
          "components": [
            {
              "internalType": "enum RICRegistry.RollupStatus",
              "name": "status",
              "type": "uint8"
            },
            {
              "internalType": "address",
              "name": "provider",
              "type": "address"
            },
            {
              "internalType": "uint256",
              "name": "queuedTimestamp",
              "type": "uint256"
            },
            {
              "internalType": "uint256",
              "name": "chainID",
              "type": "uint256"
            },
            {
              "internalType": "bytes",
              "name": "config",
              "type": "bytes"
            }
          ],
          "internalType": "struct RICRegistry.Status",
          "name": "",
          "type": "tuple"
        }
      ],
      "stateMutability": "view",
      "type": "function"
    },
    {
      "inputs": [
        {
          "internalType": "address",
          "name": "",
          "type": "address"
        }
      ],
      "name": "providerStake",
      "outputs": [
        {
          "internalType": "uint256",
          "name": "",
          "type": "uint256"
        }
      ],
      "stateMutability": "view",
      "type": "function"
    },
    {
      "inputs": [],
      "name": "providerStakeAmount",
      "outputs": [
        {
          "internalType": "uint256",
          "name": "",
          "type": "uint256"
        }
      ],
      "stateMutability": "view",
      "type": "function"
    },
    {
      "inputs": [],
      "name": "providerUnstake",
      "outputs": [],
      "stateMutability": "nonpayable",
      "type": "function"
    },
    {
      "inputs": [
        {
          "internalType": "uint256",
          "name": "chainID_",
          "type": "uint256"
        }
      ],
      "name": "queueRollup",
      "outputs": [],
      "stateMutability": "nonpayable",
      "type": "function"
    },
    {
      "inputs": [],
      "name": "queueTimeout",
      "outputs": [
        {
          "internalType": "uint256",
          "name": "",
          "type": "uint256"
        }
      ],
      "stateMutability": "view",
      "type": "function"
    },
    {
      "inputs": [
        {
          "internalType": "uint256",
          "name": "chainID_",
          "type": "uint256"
        },
        {
          "internalType": "bytes",
          "name": "config",
          "type": "bytes"
        }
      ],
      "name": "requestRollup",
      "outputs": [],
      "stateMutability": "nonpayable",
      "type": "function"
    },
    {
      "inputs": [
        {
          "internalType": "uint256",
          "name": "",
          "type": "uint256"
        }
      ],
      "name": "rollupStatus",
      "outputs": [
        {
          "internalType": "enum RICRegistry.RollupStatus",
          "name": "status",
          "type": "uint8"
        },
        {
          "internalType": "address",
          "name": "provider",
          "type": "address"
        },
        {
          "internalType": "uint256",
          "name": "queuedTimestamp",
          "type": "uint256"
        },
        {
          "internalType": "uint256",
          "name": "chainID",
          "type": "uint256"
        },
        {
          "internalType": "bytes",
          "name": "config",
          "type": "bytes"
        }
      ],
      "stateMutability": "view",
      "type": "function"
    },
    {
      "inputs": [],
      "name": "stakeAsProvider",
      "outputs": [],
      "stateMutability": "payable",
      "type": "function"
    }
  ],
  "bytecode": {
    "object": "0x60a060405234801561001057600080fd5b506040516112db3803806112db83398101604081905261002f91610041565b46608052600091909155600155610065565b6000806040838503121561005457600080fd5b505080516020909101519092909150565b60805161125e61007d6000396000505061125e6000f3fe60806040526004361061009c5760003560e01c80638c374073116100645780638c37407314610144578063931788571461014c57806396832d07146101795780639d29ca2714610199578063c76ec393146101ca578063efe30aba146101f757600080fd5b806313bd0523146100a157806353219005146100e157806356340244146101035780636854d20f146101185780636d2ddb0c1461012e575b600080fd5b3480156100ad57600080fd5b506100ce6100bc366004610cd3565b60046020526000908152604090205481565b6040519081526020015b60405180910390f35b3480156100ed57600080fd5b506101016100fc366004610d03565b610217565b005b34801561010f57600080fd5b5061010161049d565b34801561012457600080fd5b506100ce60015481565b34801561013a57600080fd5b506100ce60005481565b610101610582565b34801561015857600080fd5b5061016c610167366004610d03565b610698565b6040516100d89190610d62565b34801561018557600080fd5b50610101610194366004610d8b565b610732565b3480156101a557600080fd5b506101b96101b4366004610d03565b610889565b6040516100d8959493929190610e7e565b3480156101d657600080fd5b506101ea6101e5366004610d03565b610951565b6040516100d89190610ec3565b34801561020357600080fd5b50610101610212366004610f1d565b610a98565b6001543360009081526004602052604090205410156102965760405162461bcd60e51b815260206004820152603060248201527f52494352656769737472793a2070726f766964657220646f6573206e6f74206860448201526f61766520656e6f756768207374616b6560801b60648201526084015b60405180910390fd5b60008181526003602052604081206002015490036102c65760405162461bcd60e51b815260040161028d90610f99565b60008181526003602052604081205460ff1660028111156102e9576102e9610e46565b1480610312575060008054828252600360205260409091206001015461030f9042610ff2565b10155b61038f5760405162461bcd60e51b815260206004820152604260248201527f52494352656769737472793a20726f6c6c7570206e6f7420696e20524551554560448201527f5354454420737461747573206f722074696d656f7574206e6f74207265616368606482015261195960f21b608482015260a40161028d565b600160008281526003602052604090205460ff1660028111156103b4576103b4610e46565b1480156103de57506000805482825260036020526040909120600101546103db9042610ff2565b10155b15610409576000818152600360205260409020546104099061010090046001600160a01b0316610c36565b6000818152600360205260408120805460016001600160a81b03199091163361010081029190911782178355429190920181905591547fd470aeaba6a6d85fa12188085bef6f7834d5dee13359db2cf8a255c1825416b29284929161046e908261100b565b604080519485526001600160a01b0390931660208501529183015260608201526080015b60405180910390a150565b600154336000908152600460205260409020541461050f5760405162461bcd60e51b815260206004820152602960248201527f52494352656769737472793a2070726f766964657220646f6573206e6f742068604482015268617665207374616b6560b81b606482015260840161028d565b33600081815260046020526040808220829055600154905181156108fc0292818181858888f1935050505015801561054b573d6000803e3d6000fd5b506040513381527fc040f13890127304b60b2a24fa91a0e4877937f8426724681c2d0dfe7ff90207906020015b60405180910390a1565b60015434146105e55760405162461bcd60e51b815260206004820152602960248201527f52494352656769737472793a20696e636f727265637420616d6f756e74206f6660448201526808115512081cd95b9d60ba1b606482015260840161028d565b33600090815260046020526040902054156106525760405162461bcd60e51b815260206004820152602760248201527f52494352656769737472793a2070726f766964657220616c726561647920686160448201526673207374616b6560c81b606482015260840161028d565b6001543360008181526004602090815260409182902093909355519081527f1736f0c38f824f3c01726a7af14e1f353c3266e388bdfc5ec1e4097d23e9e23e9101610578565b600260205260009081526040902080546106b19061101e565b80601f01602080910402602001604051908101604052809291908181526020018280546106dd9061101e565b801561072a5780601f106106ff5761010080835404028352916020019161072a565b820191906000526020600020905b81548152906001019060200180831161070d57829003601f168201915b505050505081565b6000828152600360205260409020600201541561079d5760405162461bcd60e51b815260206004820152602360248201527f52494352656769737472793a20636861696e494420616c72656164792065786960448201526273747360e81b606482015260840161028d565b6040805160a0810182526000808252602080830182905242838501526060830186905260808301859052858252600390529190912081518154829060ff191660018360028111156107f0576107f0610e46565b0217905550602082015181546001600160a01b0390911661010002610100600160a81b031990911617815560408201516001820155606082015160028201556080820151600382019061084390826110a7565b505060408051848152336020820152428183015290517f808f5da474ed309cd671fe67f68f30567ab860240c2c2a9449640cdc95b8f7cf92509081900360600190a15050565b6003602081905260009182526040909120805460018201546002830154938301805460ff8416956101009094046001600160a01b03169492939291906108ce9061101e565b80601f01602080910402602001604051908101604052809291908181526020018280546108fa9061101e565b80156109475780601f1061091c57610100808354040283529160200191610947565b820191906000526020600020905b81548152906001019060200180831161092a57829003601f168201915b5050505050905085565b61098d6040805160a08101909152806000815260200160006001600160a01b031681526020016000815260200160008152602001606081525090565b60008281526003602052604090819020815160a081019092528054829060ff1660028111156109be576109be610e46565b60028111156109cf576109cf610e46565b8152815461010090046001600160a01b031660208201526001820154604082015260028201546060820152600382018054608090920191610a0f9061101e565b80601f0160208091040260200160405190810160405280929190818152602001828054610a3b9061101e565b8015610a885780601f10610a5d57610100808354040283529160200191610a88565b820191906000526020600020905b815481529060010190602001808311610a6b57829003601f168201915b5050505050815250509050919050565b6000838152600360205260408120600201549003610ac85760405162461bcd60e51b815260040161028d90610f99565b600160008481526003602052604090205460ff166002811115610aed57610aed610e46565b14610b4a5760405162461bcd60e51b815260206004820152602760248201527f52494352656769737472793a20726f6c6c7570206e6f7420696e2051554555456044820152664420737461746560c81b606482015260840161028d565b60008381526003602052604090205461010090046001600160a01b03163314610bc95760405162461bcd60e51b815260206004820152602b60248201527f52494352656769737472793a206d73672e73656e646572206973206e6f74207460448201526a343290383937bb34b232b960a91b606482015260840161028d565b6000838152600360209081526040808320805460ff191660029081179091559091529020610bf8828483611167565b50604080518481523360208201527f566940d2cdad4df4f1073f7b1e2e72d9b96d30c5a69432c1432059fcc0c9266f910160405180910390a1505050565b6001546001600160a01b03821660009081526004602052604081208054909190610c61908490610ff2565b9091555050600154604051339180156108fc02916000818181858888f19350505050158015610c94573d6000803e3d6000fd5b50604080516001600160a01b03831681523360208201527f6224637401e13f0bde2c33c63b3f7b896286f5f25c031feced5a2a536b5d4a1a9101610492565b600060208284031215610ce557600080fd5b81356001600160a01b0381168114610cfc57600080fd5b9392505050565b600060208284031215610d1557600080fd5b5035919050565b6000815180845260005b81811015610d4257602081850181015186830182015201610d26565b506000602082860101526020601f19601f83011685010191505092915050565b602081526000610cfc6020830184610d1c565b634e487b7160e01b600052604160045260246000fd5b60008060408385031215610d9e57600080fd5b82359150602083013567ffffffffffffffff80821115610dbd57600080fd5b818501915085601f830112610dd157600080fd5b813581811115610de357610de3610d75565b604051601f8201601f19908116603f01168101908382118183101715610e0b57610e0b610d75565b81604052828152886020848701011115610e2457600080fd5b8260208601602083013760006020848301015280955050505050509250929050565b634e487b7160e01b600052602160045260246000fd5b60038110610e7a57634e487b7160e01b600052602160045260246000fd5b9052565b610e888187610e5c565b60018060a01b038516602082015283604082015282606082015260a060808201526000610eb860a0830184610d1c565b979650505050505050565b60208152610ed5602082018351610e5c565b60018060a01b03602083015116604082015260408201516060820152606082015160808201526000608083015160a080840152610f1560c0840182610d1c565b949350505050565b600080600060408486031215610f3257600080fd5b83359250602084013567ffffffffffffffff80821115610f5157600080fd5b818601915086601f830112610f6557600080fd5b813581811115610f7457600080fd5b876020828501011115610f8657600080fd5b6020830194508093505050509250925092565b60208082526023908201527f52494352656769737472793a20636861696e494420646f6573206e6f742065786040820152621a5cdd60ea1b606082015260800190565b634e487b7160e01b600052601160045260246000fd5b8181038181111561100557611005610fdc565b92915050565b8082018082111561100557611005610fdc565b600181811c9082168061103257607f821691505b60208210810361105257634e487b7160e01b600052602260045260246000fd5b50919050565b601f8211156110a257600081815260208120601f850160051c8101602086101561107f5750805b601f850160051c820191505b8181101561109e5782815560010161108b565b5050505b505050565b815167ffffffffffffffff8111156110c1576110c1610d75565b6110d5816110cf845461101e565b84611058565b602080601f83116001811461110a57600084156110f25750858301515b600019600386901b1c1916600185901b17855561109e565b600085815260208120601f198616915b828110156111395788860151825594840194600190910190840161111a565b50858210156111575787850151600019600388901b60f8161c191681555b5050505050600190811b01905550565b67ffffffffffffffff83111561117f5761117f610d75565b6111938361118d835461101e565b83611058565b6000601f8411600181146111c757600085156111af5750838201355b600019600387901b1c1916600186901b178355611221565b600083815260209020601f19861690835b828110156111f857868501358255602094850194600190920191016111d8565b50868210156112155760001960f88860031b161c19848701351681555b505060018560011b0183555b505050505056fea2646970667358221220a1d535aa5b24343c223f89df73e7329bdb75a8e8638cc3fbc62bb25f83e545c064736f6c63430008110033",
    "linkReferences": {}
  },
  "methodIdentifiers": {
    "activatedRollupsL1Addresses(uint256)": "93178857",
    "deployRollup(uint256,bytes)": "efe30aba",
    "getRollupStatus(uint256)": "c76ec393",
    "providerStake(address)": "13bd0523",
    "providerStakeAmount()": "6854d20f",
    "providerUnstake()": "56340244",
    "queueRollup(uint256)": "53219005",
    "queueTimeout()": "6d2ddb0c",
    "requestRollup(uint256,bytes)": "96832d07",
    "rollupStatus(uint256)": "9d29ca27",
    "stakeAsProvider()": "8c374073"
  },
  "id": 18
}