{
  "abi": [
    {
      "inputs": [
        {
          "internalType": "uint256",
          "name": "_queueTimeout",
          "type": "uint256"
        },
        {
          "internalType": "uint256",
          "name": "_providerStakeAmount",
          "type": "uint256"
        }
      ],
      "stateMutability": "nonpayable",
      "type": "constructor"
    },
    {
      "anonymous": false,
      "inputs": [
        {
          "indexed": true,
          "internalType": "address",
          "name": "provider",
          "type": "address"
        },
        {
          "indexed": true,
          "internalType": "address",
          "name": "slasher",
          "type": "address"
        }
      ],
      "name": "providerSlashed",
      "type": "event"
    },
    {
      "anonymous": false,
      "inputs": [
        {
          "indexed": true,
          "internalType": "address",
          "name": "provider",
          "type": "address"
        }
      ],
      "name": "providerStaked",
      "type": "event"
    },
    {
      "anonymous": false,
      "inputs": [
        {
          "indexed": true,
          "internalType": "address",
          "name": "provider",
          "type": "address"
        }
      ],
      "name": "providerUnstaked",
      "type": "event"
    },
    {
      "anonymous": false,
      "inputs": [
        {
          "indexed": true,
          "internalType": "uint256",
          "name": "chainID",
          "type": "uint256"
        },
        {
          "indexed": true,
          "internalType": "address",
          "name": "provider",
          "type": "address"
        }
      ],
      "name": "rollupActivated",
      "type": "event"
    },
    {
      "anonymous": false,
      "inputs": [
        {
          "indexed": true,
          "internalType": "uint256",
          "name": "chainID",
          "type": "uint256"
        },
        {
          "indexed": true,
          "internalType": "address",
          "name": "provider",
          "type": "address"
        },
        {
          "indexed": true,
          "internalType": "uint256",
          "name": "requestedTimestamp",
          "type": "uint256"
        },
        {
          "indexed": false,
          "internalType": "uint256",
          "name": "timeoutTimestamp",
          "type": "uint256"
        }
      ],
      "name": "rollupQueued",
      "type": "event"
    },
    {
      "anonymous": false,
      "inputs": [
        {
          "indexed": true,
          "internalType": "uint256",
          "name": "chainID",
          "type": "uint256"
        },
        {
          "indexed": true,
          "internalType": "address",
          "name": "requester",
          "type": "address"
        },
        {
          "indexed": true,
          "internalType": "uint256",
          "name": "timestamp",
          "type": "uint256"
        }
      ],
      "name": "rollupRequested",
      "type": "event"
    },
    {
      "inputs": [
        {
          "internalType": "uint256",
          "name": "",
          "type": "uint256"
        }
      ],
      "name": "activatedRollupsL1Addresses",
      "outputs": [
        {
          "internalType": "bytes",
          "name": "",
          "type": "bytes"
        }
      ],
      "stateMutability": "view",
      "type": "function"
    },
    {
      "inputs": [
        {
          "internalType": "uint256",
          "name": "chainID_",
          "type": "uint256"
        },
        {
          "internalType": "bytes",
          "name": "l1Addresses_",
          "type": "bytes"
        }
      ],
      "name": "deployRollup",
      "outputs": [],
      "stateMutability": "nonpayable",
      "type": "function"
    },
    {
      "inputs": [
        {
          "internalType": "uint256",
          "name": "chainID_",
          "type": "uint256"
        }
      ],
      "name": "getRollupStatus",
      "outputs": [
        {
          "components": [
            {
              "internalType": "enum RICRegistry.RollupStatus",
              "name": "status",
              "type": "uint8"
            },
            {
              "internalType": "string",
              "name": "name",
              "type": "string"
            },
            {
              "internalType": "address",
              "name": "provider",
              "type": "address"
            },
            {
              "internalType": "uint256",
              "name": "queuedTimestamp",
              "type": "uint256"
            },
            {
              "internalType": "uint256",
              "name": "chainID",
              "type": "uint256"
            },
            {
              "internalType": "bytes",
              "name": "config",
              "type": "bytes"
            }
          ],
          "internalType": "struct RICRegistry.Status",
          "name": "",
          "type": "tuple"
        }
      ],
      "stateMutability": "view",
      "type": "function"
    },
    {
      "inputs": [
        {
          "internalType": "address",
          "name": "",
          "type": "address"
        }
      ],
      "name": "providerStake",
      "outputs": [
        {
          "internalType": "uint256",
          "name": "",
          "type": "uint256"
        }
      ],
      "stateMutability": "view",
      "type": "function"
    },
    {
      "inputs": [],
      "name": "providerStakeAmount",
      "outputs": [
        {
          "internalType": "uint256",
          "name": "",
          "type": "uint256"
        }
      ],
      "stateMutability": "view",
      "type": "function"
    },
    {
      "inputs": [],
      "name": "providerUnstake",
      "outputs": [],
      "stateMutability": "nonpayable",
      "type": "function"
    },
    {
      "inputs": [
        {
          "internalType": "uint256",
          "name": "chainID_",
          "type": "uint256"
        }
      ],
      "name": "queueRollup",
      "outputs": [],
      "stateMutability": "nonpayable",
      "type": "function"
    },
    {
      "inputs": [],
      "name": "queueTimeout",
      "outputs": [
        {
          "internalType": "uint256",
          "name": "",
          "type": "uint256"
        }
      ],
      "stateMutability": "view",
      "type": "function"
    },
    {
      "inputs": [
        {
          "internalType": "string",
          "name": "name",
          "type": "string"
        },
        {
          "internalType": "uint256",
          "name": "chainID_",
          "type": "uint256"
        },
        {
          "internalType": "bytes",
          "name": "config",
          "type": "bytes"
        }
      ],
      "name": "requestRollup",
      "outputs": [],
      "stateMutability": "nonpayable",
      "type": "function"
    },
    {
      "inputs": [
        {
          "internalType": "uint256",
          "name": "",
          "type": "uint256"
        }
      ],
      "name": "rollupStatus",
      "outputs": [
        {
          "internalType": "enum RICRegistry.RollupStatus",
          "name": "status",
          "type": "uint8"
        },
        {
          "internalType": "string",
          "name": "name",
          "type": "string"
        },
        {
          "internalType": "address",
          "name": "provider",
          "type": "address"
        },
        {
          "internalType": "uint256",
          "name": "queuedTimestamp",
          "type": "uint256"
        },
        {
          "internalType": "uint256",
          "name": "chainID",
          "type": "uint256"
        },
        {
          "internalType": "bytes",
          "name": "config",
          "type": "bytes"
        }
      ],
      "stateMutability": "view",
      "type": "function"
    },
    {
      "inputs": [],
      "name": "stakeAsProvider",
      "outputs": [],
      "stateMutability": "payable",
      "type": "function"
    }
  ],
  "bytecode": {
    "object": "0x60a060405234801561001057600080fd5b5060405161146638038061146683398101604081905261002f91610041565b46608052600091909155600155610065565b6000806040838503121561005457600080fd5b505080516020909101519092909150565b6080516113e961007d600039600050506113e96000f3fe60806040526004361061009c5760003560e01c80638c374073116100645780638c37407314610144578063931788571461014c5780639d29ca2714610179578063c76ec393146101ab578063efe30aba146101d8578063f725587c146101f857600080fd5b806313bd0523146100a157806353219005146100e157806356340244146101035780636854d20f146101185780636d2ddb0c1461012e575b600080fd5b3480156100ad57600080fd5b506100ce6100bc366004610dd5565b60046020526000908152604090205481565b6040519081526020015b60405180910390f35b3480156100ed57600080fd5b506101016100fc366004610e05565b610218565b005b34801561010f57600080fd5b5061010161048b565b34801561012457600080fd5b506100ce60015481565b34801561013a57600080fd5b506100ce60005481565b610101610567565b34801561015857600080fd5b5061016c610167366004610e05565b610677565b6040516100d89190610e64565b34801561018557600080fd5b50610199610194366004610e05565b610711565b6040516100d896959493929190610eaf565b3480156101b757600080fd5b506101cb6101c6366004610e05565b610869565b6040516100d89190610f0b565b3480156101e457600080fd5b506101016101f3366004610f84565b610a48565b34801561020457600080fd5b5061010161021336600461108c565b610bd9565b6001543360009081526004602052604090205410156102975760405162461bcd60e51b815260206004820152603060248201527f52494352656769737472793a2070726f766964657220646f6573206e6f74206860448201526f61766520656e6f756768207374616b6560801b60648201526084015b60405180910390fd5b60008181526003602052604081206004015490036102c75760405162461bcd60e51b815260040161028e90611124565b60008181526003602052604081205460ff1660028111156102ea576102ea610e77565b148061031557506000805482825260036020819052604090922090910154610312904261117d565b10155b6103925760405162461bcd60e51b815260206004820152604260248201527f52494352656769737472793a20726f6c6c7570206e6f7420696e20524551554560448201527f5354454420737461747573206f722074696d656f7574206e6f74207265616368606482015261195960f21b608482015260a40161028e565b600160008281526003602052604090205460ff1660028111156103b7576103b7610e77565b1480156103e3575060008054828252600360208190526040909220909101546103e0904261117d565b10155b1561040c5760008181526003602052604090206002015461040c906001600160a01b0316610d3d565b60008181526003602081905260408220805460ff19166001178155600281018054336001600160a01b031990911681179091554291909201819055915483907fd470aeaba6a6d85fa12188085bef6f7834d5dee13359db2cf8a255c1825416b2906104779085611196565b60405190815260200160405180910390a450565b60015433600090815260046020526040902054146104fd5760405162461bcd60e51b815260206004820152602960248201527f52494352656769737472793a2070726f766964657220646f6573206e6f742068604482015268617665207374616b6560b81b606482015260840161028e565b33600081815260046020526040808220829055600154905181156108fc0292818181858888f19350505050158015610539573d6000803e3d6000fd5b5060405133907fc040f13890127304b60b2a24fa91a0e4877937f8426724681c2d0dfe7ff9020790600090a2565b60015434146105ca5760405162461bcd60e51b815260206004820152602960248201527f52494352656769737472793a20696e636f727265637420616d6f756e74206f6660448201526808115512081cd95b9d60ba1b606482015260840161028e565b33600090815260046020526040902054156106375760405162461bcd60e51b815260206004820152602760248201527f52494352656769737472793a2070726f766964657220616c726561647920686160448201526673207374616b6560c81b606482015260840161028e565b6001543360008181526004602052604080822093909355915190917f1736f0c38f824f3c01726a7af14e1f353c3266e388bdfc5ec1e4097d23e9e23e91a2565b60026020526000908152604090208054610690906111a9565b80601f01602080910402602001604051908101604052809291908181526020018280546106bc906111a9565b80156107095780601f106106de57610100808354040283529160200191610709565b820191906000526020600020905b8154815290600101906020018083116106ec57829003601f168201915b505050505081565b6003602052600090815260409020805460018201805460ff9092169291610737906111a9565b80601f0160208091040260200160405190810160405280929190818152602001828054610763906111a9565b80156107b05780601f10610785576101008083540402835291602001916107b0565b820191906000526020600020905b81548152906001019060200180831161079357829003601f168201915b50505060028401546003850154600486015460058701805496976001600160a01b0390941696929550909350906107e6906111a9565b80601f0160208091040260200160405190810160405280929190818152602001828054610812906111a9565b801561085f5780601f106108345761010080835404028352916020019161085f565b820191906000526020600020905b81548152906001019060200180831161084257829003601f168201915b5050505050905086565b6108ac6040805160c0810190915280600081526020016060815260200160006001600160a01b031681526020016000815260200160008152602001606081525090565b60008281526003602052604090819020815160c081019092528054829060ff1660028111156108dd576108dd610e77565b60028111156108ee576108ee610e77565b8152602001600182018054610902906111a9565b80601f016020809104026020016040519081016040528092919081815260200182805461092e906111a9565b801561097b5780601f106109505761010080835404028352916020019161097b565b820191906000526020600020905b81548152906001019060200180831161095e57829003601f168201915b505050918352505060028201546001600160a01b0316602082015260038201546040820152600482015460608201526005820180546080909201916109bf906111a9565b80601f01602080910402602001604051908101604052809291908181526020018280546109eb906111a9565b8015610a385780601f10610a0d57610100808354040283529160200191610a38565b820191906000526020600020905b815481529060010190602001808311610a1b57829003601f168201915b5050505050815250509050919050565b6000838152600360205260408120600401549003610a785760405162461bcd60e51b815260040161028e90611124565b600160008481526003602052604090205460ff166002811115610a9d57610a9d610e77565b14610afa5760405162461bcd60e51b815260206004820152602760248201527f52494352656769737472793a20726f6c6c7570206e6f7420696e2051554555456044820152664420737461746560c81b606482015260840161028e565b6000838152600360205260409020600201546001600160a01b03163314610b775760405162461bcd60e51b815260206004820152602b60248201527f52494352656769737472793a206d73672e73656e646572206973206e6f74207460448201526a343290383937bb34b232b960a91b606482015260840161028e565b6000838152600360209081526040808320805460ff191660029081179091559091529020610ba6828483611232565b50604051339084907f566940d2cdad4df4f1073f7b1e2e72d9b96d30c5a69432c1432059fcc0c9266f90600090a3505050565b60008281526003602052604090206004015415610c445760405162461bcd60e51b815260206004820152602360248201527f52494352656769737472793a20636861696e494420616c72656164792065786960448201526273747360e81b606482015260840161028e565b6040805160c081018252600080825260208083018790528284018290524260608401526080830186905260a08301859052858252600390529190912081518154829060ff19166001836002811115610c9e57610c9e610e77565b021790555060208201516001820190610cb790826112f3565b5060408201516002820180546001600160a01b0319166001600160a01b03909216919091179055606082015160038201556080820151600482015560a08201516005820190610d0690826112f3565b5050604051429150339084907f808f5da474ed309cd671fe67f68f30567ab860240c2c2a9449640cdc95b8f7cf90600090a4505050565b6001546001600160a01b03821660009081526004602052604081208054909190610d6890849061117d565b9091555050600154604051339180156108fc02916000818181858888f19350505050158015610d9b573d6000803e3d6000fd5b5060405133906001600160a01b038316907f6224637401e13f0bde2c33c63b3f7b896286f5f25c031feced5a2a536b5d4a1a90600090a350565b600060208284031215610de757600080fd5b81356001600160a01b0381168114610dfe57600080fd5b9392505050565b600060208284031215610e1757600080fd5b5035919050565b6000815180845260005b81811015610e4457602081850181015186830182015201610e28565b506000602082860101526020601f19601f83011685010191505092915050565b602081526000610dfe6020830184610e1e565b634e487b7160e01b600052602160045260246000fd5b60038110610eab57634e487b7160e01b600052602160045260246000fd5b9052565b610eb98188610e8d565b60c060208201526000610ecf60c0830188610e1e565b6001600160a01b0387166040840152606083018690526080830185905282810360a0840152610efe8185610e1e565b9998505050505050505050565b60208152610f1d602082018351610e8d565b6000602083015160c06040840152610f3860e0840182610e1e565b905060018060a01b03604085015116606084015260608401516080840152608084015160a084015260a0840151601f198483030160c0850152610f7b8282610e1e565b95945050505050565b600080600060408486031215610f9957600080fd5b83359250602084013567ffffffffffffffff80821115610fb857600080fd5b818601915086601f830112610fcc57600080fd5b813581811115610fdb57600080fd5b876020828501011115610fed57600080fd5b6020830194508093505050509250925092565b634e487b7160e01b600052604160045260246000fd5b600067ffffffffffffffff8084111561103157611031611000565b604051601f8501601f19908116603f0116810190828211818310171561105957611059611000565b8160405280935085815286868601111561107257600080fd5b858560208301376000602087830101525050509392505050565b6000806000606084860312156110a157600080fd5b833567ffffffffffffffff808211156110b957600080fd5b818601915086601f8301126110cd57600080fd5b6110dc87833560208501611016565b94506020860135935060408601359150808211156110f957600080fd5b508401601f8101861361110b57600080fd5b61111a86823560208401611016565b9150509250925092565b60208082526023908201527f52494352656769737472793a20636861696e494420646f6573206e6f742065786040820152621a5cdd60ea1b606082015260800190565b634e487b7160e01b600052601160045260246000fd5b8181038181111561119057611190611167565b92915050565b8082018082111561119057611190611167565b600181811c908216806111bd57607f821691505b6020821081036111dd57634e487b7160e01b600052602260045260246000fd5b50919050565b601f82111561122d57600081815260208120601f850160051c8101602086101561120a5750805b601f850160051c820191505b8181101561122957828155600101611216565b5050505b505050565b67ffffffffffffffff83111561124a5761124a611000565b61125e8361125883546111a9565b836111e3565b6000601f841160018114611292576000851561127a5750838201355b600019600387901b1c1916600186901b1783556112ec565b600083815260209020601f19861690835b828110156112c357868501358255602094850194600190920191016112a3565b50868210156112e05760001960f88860031b161c19848701351681555b505060018560011b0183555b5050505050565b815167ffffffffffffffff81111561130d5761130d611000565b6113218161131b84546111a9565b846111e3565b602080601f831160018114611356576000841561133e5750858301515b600019600386901b1c1916600185901b178555611229565b600085815260208120601f198616915b8281101561138557888601518255948401946001909101908401611366565b50858210156113a35787850151600019600388901b60f8161c191681555b5050505050600190811b0190555056fea26469706673582212203707ebc30031901705b8d152b3e4ed0f8302e0fdc397747f641d55d59216c2fc64736f6c63430008110033",
    "linkReferences": {}
  },
  "methodIdentifiers": {
    "activatedRollupsL1Addresses(uint256)": "93178857",
    "deployRollup(uint256,bytes)": "efe30aba",
    "getRollupStatus(uint256)": "c76ec393",
    "providerStake(address)": "13bd0523",
    "providerStakeAmount()": "6854d20f",
    "providerUnstake()": "56340244",
    "queueRollup(uint256)": "53219005",
    "queueTimeout()": "6d2ddb0c",
    "requestRollup(string,uint256,bytes)": "f725587c",
    "rollupStatus(uint256)": "9d29ca27",
    "stakeAsProvider()": "8c374073"
  },
  "id": 21
}