{
  "abi": [
    {
      "inputs": [
        {
          "internalType": "uint256",
          "name": "_queueTimeout",
          "type": "uint256"
        },
        {
          "internalType": "uint256",
          "name": "_providerStakeAmount",
          "type": "uint256"
        }
      ],
      "stateMutability": "nonpayable",
      "type": "constructor"
    },
    {
      "anonymous": false,
      "inputs": [
        {
          "indexed": true,
          "internalType": "address",
          "name": "provider",
          "type": "address"
        },
        {
          "indexed": true,
          "internalType": "address",
          "name": "slasher",
          "type": "address"
        }
      ],
      "name": "providerSlashed",
      "type": "event"
    },
    {
      "anonymous": false,
      "inputs": [
        {
          "indexed": true,
          "internalType": "address",
          "name": "provider",
          "type": "address"
        }
      ],
      "name": "providerStaked",
      "type": "event"
    },
    {
      "anonymous": false,
      "inputs": [
        {
          "indexed": true,
          "internalType": "address",
          "name": "provider",
          "type": "address"
        }
      ],
      "name": "providerUnstaked",
      "type": "event"
    },
    {
      "anonymous": false,
      "inputs": [
        {
          "indexed": true,
          "internalType": "uint256",
          "name": "chainID",
          "type": "uint256"
        },
        {
          "indexed": true,
          "internalType": "address",
          "name": "provider",
          "type": "address"
        }
      ],
      "name": "rollupActivated",
      "type": "event"
    },
    {
      "anonymous": false,
      "inputs": [
        {
          "indexed": true,
          "internalType": "uint256",
          "name": "chainID",
          "type": "uint256"
        },
        {
          "indexed": true,
          "internalType": "address",
          "name": "provider",
          "type": "address"
        },
        {
          "indexed": true,
          "internalType": "uint256",
          "name": "requestedTimestamp",
          "type": "uint256"
        },
        {
          "indexed": false,
          "internalType": "uint256",
          "name": "timeoutTimestamp",
          "type": "uint256"
        }
      ],
      "name": "rollupQueued",
      "type": "event"
    },
    {
      "anonymous": false,
      "inputs": [
        {
          "indexed": true,
          "internalType": "uint256",
          "name": "chainID",
          "type": "uint256"
        },
        {
          "indexed": true,
          "internalType": "address",
          "name": "requester",
          "type": "address"
        },
        {
          "indexed": true,
          "internalType": "uint256",
          "name": "timestamp",
          "type": "uint256"
        }
      ],
      "name": "rollupRequested",
      "type": "event"
    },
    {
      "inputs": [
        {
          "internalType": "uint256",
          "name": "",
          "type": "uint256"
        }
      ],
      "name": "activatedRollupsL1Addresses",
      "outputs": [
        {
          "internalType": "bytes",
          "name": "",
          "type": "bytes"
        }
      ],
      "stateMutability": "view",
      "type": "function"
    },
    {
      "inputs": [
        {
          "internalType": "uint256",
          "name": "chainID_",
          "type": "uint256"
        },
        {
          "internalType": "bytes",
          "name": "l1Addresses_",
          "type": "bytes"
        }
      ],
      "name": "deployRollup",
      "outputs": [],
      "stateMutability": "nonpayable",
      "type": "function"
    },
    {
      "inputs": [
        {
          "internalType": "uint256",
          "name": "chainID_",
          "type": "uint256"
        }
      ],
      "name": "getRollupStatus",
      "outputs": [
        {
          "components": [
            {
              "internalType": "enum RICRegistry.RollupStatus",
              "name": "status",
              "type": "uint8"
            },
            {
              "internalType": "string",
              "name": "name",
              "type": "string"
            },
            {
              "internalType": "address",
              "name": "provider",
              "type": "address"
            },
            {
              "internalType": "uint256",
              "name": "queuedTimestamp",
              "type": "uint256"
            },
            {
              "internalType": "uint256",
              "name": "chainID",
              "type": "uint256"
            },
            {
              "internalType": "bytes",
              "name": "config",
              "type": "bytes"
            }
          ],
          "internalType": "struct RICRegistry.Status",
          "name": "",
          "type": "tuple"
        }
      ],
      "stateMutability": "view",
      "type": "function"
    },
    {
      "inputs": [
        {
          "internalType": "address",
          "name": "",
          "type": "address"
        }
      ],
      "name": "providerStake",
      "outputs": [
        {
          "internalType": "uint256",
          "name": "",
          "type": "uint256"
        }
      ],
      "stateMutability": "view",
      "type": "function"
    },
    {
      "inputs": [],
      "name": "providerStakeAmount",
      "outputs": [
        {
          "internalType": "uint256",
          "name": "",
          "type": "uint256"
        }
      ],
      "stateMutability": "view",
      "type": "function"
    },
    {
      "inputs": [],
      "name": "providerUnstake",
      "outputs": [],
      "stateMutability": "nonpayable",
      "type": "function"
    },
    {
      "inputs": [
        {
          "internalType": "uint256",
          "name": "",
          "type": "uint256"
        }
      ],
      "name": "providers",
      "outputs": [
        {
          "internalType": "address",
          "name": "",
          "type": "address"
        }
      ],
      "stateMutability": "view",
      "type": "function"
    },
    {
      "inputs": [
        {
          "internalType": "uint256",
          "name": "chainID_",
          "type": "uint256"
        }
      ],
      "name": "queueRollup",
      "outputs": [],
      "stateMutability": "nonpayable",
      "type": "function"
    },
    {
      "inputs": [],
      "name": "queueTimeout",
      "outputs": [
        {
          "internalType": "uint256",
          "name": "",
          "type": "uint256"
        }
      ],
      "stateMutability": "view",
      "type": "function"
    },
    {
      "inputs": [
        {
          "internalType": "string",
          "name": "name",
          "type": "string"
        },
        {
          "internalType": "uint256",
          "name": "chainID_",
          "type": "uint256"
        },
        {
          "internalType": "bytes",
          "name": "config",
          "type": "bytes"
        }
      ],
      "name": "requestRollup",
      "outputs": [],
      "stateMutability": "nonpayable",
      "type": "function"
    },
    {
      "inputs": [
        {
          "internalType": "uint256",
          "name": "",
          "type": "uint256"
        }
      ],
      "name": "rollupStatus",
      "outputs": [
        {
          "internalType": "enum RICRegistry.RollupStatus",
          "name": "status",
          "type": "uint8"
        },
        {
          "internalType": "string",
          "name": "name",
          "type": "string"
        },
        {
          "internalType": "address",
          "name": "provider",
          "type": "address"
        },
        {
          "internalType": "uint256",
          "name": "queuedTimestamp",
          "type": "uint256"
        },
        {
          "internalType": "uint256",
          "name": "chainID",
          "type": "uint256"
        },
        {
          "internalType": "bytes",
          "name": "config",
          "type": "bytes"
        }
      ],
      "stateMutability": "view",
      "type": "function"
    },
    {
      "inputs": [],
      "name": "stakeAsProvider",
      "outputs": [],
      "stateMutability": "payable",
      "type": "function"
    },
    {
      "inputs": [
        {
          "internalType": "address",
          "name": "",
          "type": "address"
        },
        {
          "internalType": "uint256",
          "name": "",
          "type": "uint256"
        }
      ],
      "name": "userToRollupChainIDs",
      "outputs": [
        {
          "internalType": "uint256",
          "name": "",
          "type": "uint256"
        }
      ],
      "stateMutability": "view",
      "type": "function"
    }
  ],
  "bytecode": {
    "object": "0x60a060405234801561001057600080fd5b506040516115d83803806115d883398101604081905261002f91610041565b46608052600091909155600155610065565b6000806040838503121561005457600080fd5b505080516020909101519092909150565b60805161155b61007d6000396000505061155b6000f3fe6080604052600436106100c25760003560e01c80636d2ddb0c1161007f5780639d29ca27116100595780639d29ca27146101f7578063c76ec39314610229578063efe30aba14610256578063f725587c1461027657600080fd5b80636d2ddb0c146101ac5780638c374073146101c257806393178857146101ca57600080fd5b806313bd0523146100c757806350f3fc811461010757806352732edb1461013f578063532190051461015f57806356340244146101815780636854d20f14610196575b600080fd5b3480156100d357600080fd5b506100f46100e2366004610f2b565b60046020526000908152604090205481565b6040519081526020015b60405180910390f35b34801561011357600080fd5b50610127610122366004610f4d565b610296565b6040516001600160a01b0390911681526020016100fe565b34801561014b57600080fd5b506100f461015a366004610f66565b6102c0565b34801561016b57600080fd5b5061017f61017a366004610f4d565b6102f1565b005b34801561018d57600080fd5b5061017f610564565b3480156101a257600080fd5b506100f460015481565b3480156101b857600080fd5b506100f460005481565b61017f610640565b3480156101d657600080fd5b506101ea6101e5366004610f4d565b61078e565b6040516100fe9190610fd6565b34801561020357600080fd5b50610217610212366004610f4d565b610828565b6040516100fe96959493929190611021565b34801561023557600080fd5b50610249610244366004610f4d565b610980565b6040516100fe919061107d565b34801561026257600080fd5b5061017f6102713660046110f6565b610b5f565b34801561028257600080fd5b5061017f6102913660046111fe565b610cf0565b600681815481106102a657600080fd5b6000918252602090912001546001600160a01b0316905081565b600560205281600052604060002081815481106102dc57600080fd5b90600052602060002001600091509150505481565b6001543360009081526004602052604090205410156103705760405162461bcd60e51b815260206004820152603060248201527f52494352656769737472793a2070726f766964657220646f6573206e6f74206860448201526f61766520656e6f756768207374616b6560801b60648201526084015b60405180910390fd5b60008181526003602052604081206004015490036103a05760405162461bcd60e51b815260040161036790611296565b60008181526003602052604081205460ff1660028111156103c3576103c3610fe9565b14806103ee575060008054828252600360208190526040909220909101546103eb90426112ef565b10155b61046b5760405162461bcd60e51b815260206004820152604260248201527f52494352656769737472793a20726f6c6c7570206e6f7420696e20524551554560448201527f5354454420737461747573206f722074696d656f7574206e6f74207265616368606482015261195960f21b608482015260a401610367565b600160008281526003602052604090205460ff16600281111561049057610490610fe9565b1480156104bc575060008054828252600360208190526040909220909101546104b990426112ef565b10155b156104e5576000818152600360205260409020600201546104e5906001600160a01b0316610e77565b60008181526003602081905260408220805460ff19166001178155600281018054336001600160a01b031990911681179091554291909201819055915483907fd470aeaba6a6d85fa12188085bef6f7834d5dee13359db2cf8a255c1825416b2906105509085611308565b60405190815260200160405180910390a450565b60015433600090815260046020526040902054146105d65760405162461bcd60e51b815260206004820152602960248201527f52494352656769737472793a2070726f766964657220646f6573206e6f742068604482015268617665207374616b6560b81b6064820152608401610367565b33600081815260046020526040808220829055600154905181156108fc0292818181858888f19350505050158015610612573d6000803e3d6000fd5b5060405133907fc040f13890127304b60b2a24fa91a0e4877937f8426724681c2d0dfe7ff9020790600090a2565b60015434146106a35760405162461bcd60e51b815260206004820152602960248201527f52494352656769737472793a20696e636f727265637420616d6f756e74206f6660448201526808115512081cd95b9d60ba1b6064820152608401610367565b33600090815260046020526040902054156107105760405162461bcd60e51b815260206004820152602760248201527f52494352656769737472793a2070726f766964657220616c726561647920686160448201526673207374616b6560c81b6064820152608401610367565b6006805460018181019092557ff652222313e28459528d920b65115c16c04f3efc82aaedc97be59f3f377c0d3f0180546001600160a01b0319163390811790915590546000828152600460205260408082209290925590517f1736f0c38f824f3c01726a7af14e1f353c3266e388bdfc5ec1e4097d23e9e23e9190a2565b600260205260009081526040902080546107a79061131b565b80601f01602080910402602001604051908101604052809291908181526020018280546107d39061131b565b80156108205780601f106107f557610100808354040283529160200191610820565b820191906000526020600020905b81548152906001019060200180831161080357829003601f168201915b505050505081565b6003602052600090815260409020805460018201805460ff909216929161084e9061131b565b80601f016020809104026020016040519081016040528092919081815260200182805461087a9061131b565b80156108c75780601f1061089c576101008083540402835291602001916108c7565b820191906000526020600020905b8154815290600101906020018083116108aa57829003601f168201915b50505060028401546003850154600486015460058701805496976001600160a01b0390941696929550909350906108fd9061131b565b80601f01602080910402602001604051908101604052809291908181526020018280546109299061131b565b80156109765780601f1061094b57610100808354040283529160200191610976565b820191906000526020600020905b81548152906001019060200180831161095957829003601f168201915b5050505050905086565b6109c36040805160c0810190915280600081526020016060815260200160006001600160a01b031681526020016000815260200160008152602001606081525090565b60008281526003602052604090819020815160c081019092528054829060ff1660028111156109f4576109f4610fe9565b6002811115610a0557610a05610fe9565b8152602001600182018054610a199061131b565b80601f0160208091040260200160405190810160405280929190818152602001828054610a459061131b565b8015610a925780601f10610a6757610100808354040283529160200191610a92565b820191906000526020600020905b815481529060010190602001808311610a7557829003601f168201915b505050918352505060028201546001600160a01b031660208201526003820154604082015260048201546060820152600582018054608090920191610ad69061131b565b80601f0160208091040260200160405190810160405280929190818152602001828054610b029061131b565b8015610b4f5780601f10610b2457610100808354040283529160200191610b4f565b820191906000526020600020905b815481529060010190602001808311610b3257829003601f168201915b5050505050815250509050919050565b6000838152600360205260408120600401549003610b8f5760405162461bcd60e51b815260040161036790611296565b600160008481526003602052604090205460ff166002811115610bb457610bb4610fe9565b14610c115760405162461bcd60e51b815260206004820152602760248201527f52494352656769737472793a20726f6c6c7570206e6f7420696e2051554555456044820152664420737461746560c81b6064820152608401610367565b6000838152600360205260409020600201546001600160a01b03163314610c8e5760405162461bcd60e51b815260206004820152602b60248201527f52494352656769737472793a206d73672e73656e646572206973206e6f74207460448201526a343290383937bb34b232b960a91b6064820152608401610367565b6000838152600360209081526040808320805460ff191660029081179091559091529020610cbd8284836113a4565b50604051339084907f566940d2cdad4df4f1073f7b1e2e72d9b96d30c5a69432c1432059fcc0c9266f90600090a3505050565b60008281526003602052604090206004015415610d5b5760405162461bcd60e51b815260206004820152602360248201527f52494352656769737472793a20636861696e494420616c72656164792065786960448201526273747360e81b6064820152608401610367565b33600090815260056020908152604080832080546001808201835591855283852001869055815160c0810183528481528084018890528083018590524260608201526080810187905260a081018690528685526003909352922081518154929391929091839160ff191690836002811115610dd857610dd8610fe9565b021790555060208201516001820190610df19082611465565b5060408201516002820180546001600160a01b0319166001600160a01b03909216919091179055606082015160038201556080820151600482015560a08201516005820190610e409082611465565b5050604051429150339084907f808f5da474ed309cd671fe67f68f30567ab860240c2c2a9449640cdc95b8f7cf90600090a4505050565b6001546001600160a01b03821660009081526004602052604081208054909190610ea29084906112ef565b9091555050600154604051339180156108fc02916000818181858888f19350505050158015610ed5573d6000803e3d6000fd5b5060405133906001600160a01b038316907f6224637401e13f0bde2c33c63b3f7b896286f5f25c031feced5a2a536b5d4a1a90600090a350565b80356001600160a01b0381168114610f2657600080fd5b919050565b600060208284031215610f3d57600080fd5b610f4682610f0f565b9392505050565b600060208284031215610f5f57600080fd5b5035919050565b60008060408385031215610f7957600080fd5b610f8283610f0f565b946020939093013593505050565b6000815180845260005b81811015610fb657602081850181015186830182015201610f9a565b506000602082860101526020601f19601f83011685010191505092915050565b602081526000610f466020830184610f90565b634e487b7160e01b600052602160045260246000fd5b6003811061101d57634e487b7160e01b600052602160045260246000fd5b9052565b61102b8188610fff565b60c06020820152600061104160c0830188610f90565b6001600160a01b0387166040840152606083018690526080830185905282810360a08401526110708185610f90565b9998505050505050505050565b6020815261108f602082018351610fff565b6000602083015160c060408401526110aa60e0840182610f90565b905060018060a01b03604085015116606084015260608401516080840152608084015160a084015260a0840151601f198483030160c08501526110ed8282610f90565b95945050505050565b60008060006040848603121561110b57600080fd5b83359250602084013567ffffffffffffffff8082111561112a57600080fd5b818601915086601f83011261113e57600080fd5b81358181111561114d57600080fd5b87602082850101111561115f57600080fd5b6020830194508093505050509250925092565b634e487b7160e01b600052604160045260246000fd5b600067ffffffffffffffff808411156111a3576111a3611172565b604051601f8501601f19908116603f011681019082821181831017156111cb576111cb611172565b816040528093508581528686860111156111e457600080fd5b858560208301376000602087830101525050509392505050565b60008060006060848603121561121357600080fd5b833567ffffffffffffffff8082111561122b57600080fd5b818601915086601f83011261123f57600080fd5b61124e87833560208501611188565b945060208601359350604086013591508082111561126b57600080fd5b508401601f8101861361127d57600080fd5b61128c86823560208401611188565b9150509250925092565b60208082526023908201527f52494352656769737472793a20636861696e494420646f6573206e6f742065786040820152621a5cdd60ea1b606082015260800190565b634e487b7160e01b600052601160045260246000fd5b81810381811115611302576113026112d9565b92915050565b80820180821115611302576113026112d9565b600181811c9082168061132f57607f821691505b60208210810361134f57634e487b7160e01b600052602260045260246000fd5b50919050565b601f82111561139f57600081815260208120601f850160051c8101602086101561137c5750805b601f850160051c820191505b8181101561139b57828155600101611388565b5050505b505050565b67ffffffffffffffff8311156113bc576113bc611172565b6113d0836113ca835461131b565b83611355565b6000601f84116001811461140457600085156113ec5750838201355b600019600387901b1c1916600186901b17835561145e565b600083815260209020601f19861690835b828110156114355786850135825560209485019460019092019101611415565b50868210156114525760001960f88860031b161c19848701351681555b505060018560011b0183555b5050505050565b815167ffffffffffffffff81111561147f5761147f611172565b6114938161148d845461131b565b84611355565b602080601f8311600181146114c857600084156114b05750858301515b600019600386901b1c1916600185901b17855561139b565b600085815260208120601f198616915b828110156114f7578886015182559484019460019091019084016114d8565b50858210156115155787850151600019600388901b60f8161c191681555b5050505050600190811b0190555056fea26469706673582212207a12132f0d7f15555493f41842000c31ce6e4e5b84a10c7ae09f558ecf2f9b5e64736f6c63430008110033",
    "linkReferences": {}
  },
  "methodIdentifiers": {
    "activatedRollupsL1Addresses(uint256)": "93178857",
    "deployRollup(uint256,bytes)": "efe30aba",
    "getRollupStatus(uint256)": "c76ec393",
    "providerStake(address)": "13bd0523",
    "providerStakeAmount()": "6854d20f",
    "providerUnstake()": "56340244",
    "providers(uint256)": "50f3fc81",
    "queueRollup(uint256)": "53219005",
    "queueTimeout()": "6d2ddb0c",
    "requestRollup(string,uint256,bytes)": "f725587c",
    "rollupStatus(uint256)": "9d29ca27",
    "stakeAsProvider()": "8c374073",
    "userToRollupChainIDs(address,uint256)": "52732edb"
  },
  "id": 21
}